:100000000C9434000C9451000C9451000C94510049
:100010000C9451000C9451000C9451000C9451001C
:100020000C9451000C9451000C9451000C9451000C
:100030000C9451000C9451000C9451000C945100FC
:100040000C941A010C9451000C9451000C94510022
:100050000C9451000C94F5040C9451000C94510034
:100060000C9442020C94510011241FBECFEFD8E033
:10007000DEBFCDBF11E0A0E0B1E0ECEFF4E102C0E3
:1000800005900D92A231B107D9F721E0A2E1B1E0CC
:1000900001C01D92AE3FB207E1F70E9431070C94F8
:1000A000730A0C94000083E090E09093AF0180937A
:1000B000AE018AE090E0A0E0B0E08093B0019093C0
:1000C000B101A093B201B093B3018DEC9CECACEC08
:1000D000BEE38093B4019093B501A093B601B093B1
:1000E000B70184E690E0A0E0B0E08093B80190937F
:1000F000B901A093BA01B093BB018DE790E0909352
:10010000BD018093BC01EEEAF1E080E09191892786
:1001100091E0EE3BF907D1F78093BE018095809383
:10012000BF0142E150E070E060E08EEA91E00C94A3
:100130005B0A8F929F92AF92BF92EF92FF920F93C2
:100140001F93CF93DF9300D0CDB7DEB77C014A0178
:100150005B01C801F701E00FF11FE081E150E930D8
:1001600068F4F0E0EB58F54F0C94290842E150E0B8
:1001700060E070E080E091E00E94AF030F900F908C
:10018000DF91CF911F910F91FF90EF90BF90AF90B3
:100190009F908F9008958091B00189838A8342E077
:1001A00050E060E070E0CE010196E6CF23E08216D9
:1001B0009104A104B10410F3F8013296EE0DFF1D75
:1001C000808190E0B0E0A0E08093B0019093B10115
:1001D000A093B201B093B301D1CF8091AE01DDCF36
:1001E000E3E08E169104A104B10440F202968E0D54
:1001F0009F1DFC0180818230A9F038F481110BC071
:100200001092AF011092AE01B9CF833009F0B6CF92
:1002100083E090E002C081E090E09093AF01809392
:10022000AE01ACCF82E090E0F8CF0E9453000E9474
:10023000BE06A4CF1F921FB61F9211240F931F93C7
:100240002F933F934F935F936F937F938F939F93DE
:10025000AF93BF938091220190912301A09124013B
:10026000B091250100911E0110911F0120912001E4
:1002700030912101B901A8014D5F5F4F6F4F7F4F52
:100280004D37510561057105B8F50196A11DB11DE8
:1002900000911A0110911B0120911C0130911D0148
:1002A0000F5F1F4F2F4F3F4F00931A0110931B01F9
:1002B00020931C0130931D01809322019093230110
:1002C000A0932401B093250140931E0150931F0178
:1002D0006093200170932101BF91AF919F918F9105
:1002E0007F916F915F914F913F912F911F910F914E
:1002F0001F901FBE1F901895B901A8014A575109B8
:10030000610971090296A11DB11DC2CFCF93DF9380
:1003100000D000D0CDB7DEB78FB7F894209122017E
:1003200030912301409124015091250129833A8382
:100330004B835C838FBF69817A818B819C810F9015
:100340000F900F900F90DF91CF910895CF93DF938F
:1003500000D000D0CDB7DEB72FB7F89480911A0146
:1003600090911B01A0911C01B0911D0146B550E078
:1003700070E060E0A89B08C04F3F51056105710522
:1003800019F00196A11DB11D2FBFBA2FA92F982FCB
:100390008827840F951FA61FB71F9C01AD0162E03F
:1003A000220F331F441F551F6A95D1F7CA01B901A7
:1003B0000F900F900F900F90DF91CF910895CF92F3
:1003C000DF92EF92FF92CF93DF9300D000D000D066
:1003D000CDB7DEB76B017C010E94A6016D837E83E1
:1003E000C114D104E104F10469F426960FB6F8941F
:1003F000DEBF0FBECDBFDF91CF91FF90EF90DF90BA
:10040000CF9008950E94A60169837A838B839C8391
:1004100089819A812D813E81821B930B883E934076
:10042000F8F28D819E8188519C4F9E838D8391E04F
:10043000C91AD108E108F108D3CF019739F0880F24
:10044000991F880F991F02970197F1F708959FB799
:10045000F89414BC83E085BD81E080936E00E4E6EF
:10046000F0E080818F7D80839FBF089510926E00A1
:100470000895F894880F8093BA0085EC8093BC00AF
:10048000789408950F920FB60F921F9211242F9314
:100490003F934F935F936F937F938F939F93AF930C
:1004A000BF93EF93FF938091B900982F987F887E38
:1004B000883AE1F1903831F54091BB0080916C01B0
:1004C00090916D01E0916A01F0916B01019620E439
:1004D00030E0B9010E9415088E179F0799F0E0914E
:1004E0006C01F0916D01E259FE4F408380916C01E7
:1004F00090916D010196B9010E94150890936D01CC
:1005000080936C0185EC8093BC00FF91EF91BF91CB
:10051000AF919F918F917F916F915F914F913F919B
:100520002F911F900F900FBE0F90189520912801CA
:1005300030912901809126019091270128173907D0
:10054000B9F0E0912601F0912701E65DFE4F208190
:100550008091260190912701019660E470E00E944D
:10056000150890932701809326012093BB00CACFE2
:1005700020E0FBCFCF92DF92EF92FF920F931F9379
:10058000CF93DF9320916A0130916B0180916C01D0
:1005900090916D01821793070CF468C020916C0153
:1005A00030916D0180916A0190916B01281B25307B
:1005B00008F453C0E0E4F0E0A0916A01B0916B014F
:1005C000A259BE4F8C918A3AC1F580916A019091EF
:1005D0006B010196BF010E941508DC01A259BE4FB4
:1005E0008C91853551F580916A0190916B0102964D
:1005F000BF010E941508DC01A259BE4F8C918A3AB6
:10060000E1F480916A0190916B010396BF010E9411
:100610001508DC01A259BE4F8C91853571F480918B
:100620006A0190916B010496BF010E941508DC01DC
:10063000A259BE4F8C918A3A19F5215080916A01D6
:1006400090916B010196BF010E94150890936B0178
:1006500080936A01243009F0AFCFDF91CF911F91D1
:100660000F91FF90EF90DF90CF90089520916C0153
:1006700030916D0180916A0190916B01205C96CF61
:10068000273058F380916A0190916B010596BF0164
:100690000E941508FC01E259FE4FC081C95F2C176A
:1006A000E0F220E044E050E060E070E0CC2ED12C9D
:1006B000F12CE12C4C155D056E057F0580F02223A1
:1006C00041F180916A0190916B01049660E470E0C1
:1006D0000E94150890936B0180936A01BECF8091B0
:1006E0006A0190916B01092E000CAA0BBB0B840FC1
:1006F000951FA61FB71F8F739927AA27BB2782595B
:100700009E4FFC01808128274F5F5F4F6F4F7F4FC7
:10071000D1CFD0E000916A0110916B016E01F5E03C
:10072000CF1AD1080D2C000CEE08FF080C5F1F4FEC
:10073000012E000C220B330B40E450E060E070E02F
:100740008EE691E00E94990080916A0190916B0180
:10075000C80FD91FD0936B01C0936A017ECFCF928F
:10076000DF92EF92FF920F931F93CF93DF93FC01E1
:100770006A017B01892B09F44FC0C114D104E10443
:10078000F10409F449C0409126015091270180915C
:10079000280190912901841795070CF446C0809197
:1007A0002801909129014091260150912701841B35
:1007B000950B092E000CAA0BBB0B40E450E060E047
:1007C00070E0481B590B6A0B7B0B4C155D056E05E1
:1007D0007F0510F100E010E09801C0E4D0E0A091A6
:1007E0002801B09129018191A65DBE4F8C93809123
:1007F0002801909129010196BE010E94150890934D
:100800002901809328010F5F1F4F2F4F3F4FC016C4
:10081000D106E206F30619F7DF91CF911F910F91F0
:10082000FF90EF90DF90CF90089540912601509176
:1008300027018091280190912901841B950B805CF0
:100840009F4FB7CFCF92DF92EF92FF921F93CF933C
:10085000DF93182FD92FC62F69017A01E091280163
:10086000F0912901E65DFE4F3AEA3083809128013C
:10087000909129010196E0E4F0E0BF010E94150883
:10088000DC01A65DBE4F25E52C9380912801909157
:1008900029010296BF010E941508DC01A65DBE4F2A
:1008A0003C9380912801909129010396BF010E94F9
:1008B0001508DC01A65DBE4F2C9380912801909114
:1008C00029010496BF010E941508DC01A65DBE4FF8
:1008D000CC9380912801909129010596BF010E9437
:1008E000150822E02C0DFC01E65DFE4F20832C272D
:1008F000E12FFD2F40E050E0BA0180912801909156
:1009000029010696092E000CAA0BBB0B840F951F1C
:10091000A61FB71F8F739927AA27BB274C155D0504
:100920006E057F05C9F4865D9E4FFC012083809192
:100930002801909129010796480F591F4F73552799
:100940005093290140932801DF91CF911F91FF908F
:10095000EF90DF90CF9008953191865D9E4FDC013E
:100960003C9323274F5F5F4F6F4F7F4FC6CFCF938F
:10097000E0912801F0912901E65DFE4FCAEAC083AB
:100980008091280190912901019620E430E0B9017D
:100990000E941508FC01E65DFE4F45E5408380910D
:1009A0002801909129010296B9010E941508FC01C5
:1009B000E65DFE4FC0838091280190912901039646
:1009C000B9010E941508FC01E65DFE4F408380914D
:1009D0002801909129010496B9010E94150890936D
:1009E000290180932801CF9108951F920F920FB68D
:1009F0000F9211242F923F924F925F926F927F92AB
:100A00008F929F92AF92BF92CF92DF92EF92FF921E
:100A10000F931F932F933F934F935F936F937F9306
:100A20008F939F93AF93BF93EF93FF93CF93DF93F6
:100A3000CDB7DEB72797DEBFCDBF20917C002E83D8
:100A40002B5F23702D834090C0015090C1016090B6
:100A5000C2017090C301E22FF0E034E0239F8001D7
:100A60001124A80142515E4F5A01DA01CD90DD9068
:100A7000ED90FC90411451046104710409F0DFC051
:100A80008090780090907900EE0FFF1FEC53FE4F9E
:100A9000918280824090B4015090B5016090B6017F
:100AA0007090B701A301920160E070E080E89FE3DD
:100AB0000E944308F801E452FE4F5F01208131811A
:100AC0004281538169837A838B839C8369817A8194
:100AD0008B819C810E94DE091B018F839D83940181
:100AE00050E040E029833A834B835C83CA01B40120
:100AF0000E942709A301920169837A838B839C83D7
:100B000069817A818B819C810E94DE099B01AC0105
:100B100029823A828F818B839D819C8369817A812E
:100B20008B819C810E944408762E872E982E9D836F
:100B3000862F982DA92DBD81F50180839183A283F5
:100B4000B383A701960179828A829B82BC836981E3
:100B50007A818B819C810E94D90918160CF068C09B
:100B6000A701960169817A818B819C810E9443084B
:100B7000D62EE72EF82E9983F801E453FE4F862FE8
:100B80009E2DAF2DB98180839183A283B383609121
:100B9000B0017091B1018091B2019091B3010E94B6
:100BA00027092D2D3E2D4F2D598169837A838B8303
:100BB0009C8369817A818B819C810E94B00887FF28
:100BC00006C081E090E09093ED018093EC018E816E
:100BD0008F5F8370FE81F07EF82BF0937C00279668
:100BE0000FB6F894DEBF0FBECDBFDF91CF91FF915E
:100BF000EF91BF91AF919F918F917F916F915F9195
:100C00004F913F912F911F910F91FF90EF90DF90A7
:100C1000CF90BF90AF909F908F907F906F905F909C
:100C20004F903F902F900F900FBE0F901F901895F0
:100C3000272D382D492D5D81C701B60197CF8091B1
:100C40007800909179009C0150E040E029833A833C
:100C50004B835C83CA01B9010E942709A701960151
:100C600069837A838B839C8369817A818B819C8160
:100C70000E944408D5016D937D938D939C931397A7
:100C8000BD81B33009F0A3CFE1E04E1A51086108ED
:100C900071084092C0015092C1016092C2017092ED
:100CA000C30145284628472809F091CF6091B80133
:100CB0007091B9018091BA019091BB010E942709FE
:100CC000F62E072F182F9983262F372F482F592FAD
:100CD0006091EE017091EF018091F0019091F1012E
:100CE0000E94B5086093EE017093EF018093F001CC
:100CF0009093F1012F2D302F412F59816091F201F6
:100D00007091F3018091F4019091F5010E94B50872
:100D10006093F2017093F3018093F4019093F501D5
:100D20002F2D302F412F59816091F6017091F701DD
:100D30008091F8019091F9010E94B5086093F60145
:100D40007093F7018093F8019093F9012F2D302FC4
:100D5000412F59816091FA017091FB018091FC0152
:100D60009091FD010E94B5086093FA017093FB0118
:100D70008093FC019093FD01299829CFEEEEF1E0DC
:100D800010821182128213821482158216821782B7
:100D90001086118612861386148615861686178687
:100DA0008091B8019091B901A091BA01B091BB01B5
:100DB0008093C0019093C101A093C201B093C3017D
:100DC0000895CF93DF931092C0011092C101109249
:100DD000C2011092C3011092ED011092EC01EEEEEF
:100DE000F1E084EC91E0CCEDD1E04CEC51E01192DB
:100DF000119211921192DC011D921D92CD01199256
:100E0000199219921992DA011D921D921D921D924A
:100E1000AD01B1E0EE3FFB0751F7CFB7F8940E9468
:100E2000BE06809164008E7F8093640080E480938E
:100E30007C0010927B008FEB80937A00CFBF809173
:100E40007A00806480937A0090917C0080917C008D
:100E500083708F5F907E892B80937C00DF91CF9190
:100E600008950E9427027894C2E0C4B9C5B968EE1B
:100E700073E080E090E00E94DF0185B18C2785B9A6
:100E800068EE73E080E090E00E94DF0185B18C277E
:100E900085B968EE73E080E090E00E94DF0185B1E3
:100EA000C827C5B968EE73E080E090E00E94DF01DA
:100EB000219A299822981092C10081E10E9439025A
:100EC00042E150E070E060E08EEA91E00E944B0A5F
:100ED0000E9453000E94E1060E94BA028091AE0176
:100EE0009091AF018230910509F45FC0C0F4209168
:100EF000EC013091ED014091160150911701609184
:100F0000180170911901892B09F044C0232B51F06D
:100F1000452B462B472B31F41A9B04C041C0039745
:100F200009F45FC08091160190911701A0911801FA
:100F3000B0911901892B8A2B8B2B71F20E948601AB
:100F4000462F572FBC0100911201109113012091DF
:100F50001401309115018091160190911701A09113
:100F60001801B0911901800F911FA21FB31F8017A4
:100F70009107A207B30708F048C084179507A60792
:100F8000B70708F0A9CF401751076207730708F0A9
:100F9000A3CF41C0232B31F2452B462B472B11F613
:100FA0001092ED011092EC0102C01A9BBBCF299A5E
:100FB0008091BC019091BD01B0E0A0E0809316014A
:100FC00090931701A0931801B09319010E94860114
:100FD0006093120170931301809314019093150193
:100FE000A1CF8091EC019091ED01892B09F494CF70
:100FF0008091160190911701A0911801B0911901EB
:10100000892B8A2B8B2B61F287CF84179507A60734
:10101000B70708F0B8CF109216011092170110927E
:10102000180110921901299857CF97FB072E16F433
:10103000009407D077FD09D00E942F0807FC05D047
:101040003EF4909581959F4F0895709561957F4FDF
:101050000895EE0FFF1F0590F491E02D0994AA1B4F
:10106000BB1B51E107C0AA1FBB1FA617B70710F093
:10107000A61BB70B881F991F5A95A9F780959095C5
:10108000BC01CD0108955058BB27AA270E945B08D8
:101090000C949F090E94910938F00E94980920F051
:1010A00039F49F3F19F426F40C948E090EF4E09560
:1010B000E7FB0C948809E92F0E94B00958F3BA178E
:1010C000620773078407950720F079F4A6F50C945E
:1010D000D2090EF4E0950B2EBA2FA02D0B01B90109
:1010E00090010C01CA01A0011124FF27591B99F09E
:1010F000593F50F4503E68F11A16F040A22F232FAA
:10110000342F4427585FF3CF469537952795A795F9
:10111000F0405395C9F77EF41F16BA0B620B730BA0
:10112000840BBAF09150A1F0FF0FBB1F661F771F11
:10113000881FC2F70EC0BA0F621F731F841F48F4C6
:10114000879577956795B795F7959E3F08F0B0CF4F
:101150009395880F08F09927EE0F97958795089536
:101160000E94640908F481E008950E94C9080C9463
:101170009F090E94980958F00E94910940F029F4B3
:101180005F3F29F00C94880951110C94D3090C94F9
:101190008E090E94B00968F39923B1F3552391F3A6
:1011A000951B550BBB27AA2762177307840738F0D6
:1011B0009F5F5F4F220F331F441FAA1FA9F335D033
:1011C0000E2E3AF0E0E832D091505040E695001CE7
:1011D000CAF72BD0FE2F29D0660F771F881FBB1FA1
:1011E000261737074807AB07B0E809F0BB0B802D7F
:1011F000BF01FF2793585F4F3AF09E3F510578F0AB
:101200000C9488090C94D3095F3FE4F3983ED4F31F
:10121000869577956795B795F7959F5FC9F7880F7E
:10122000911D9695879597F90895E1E0660F771FD0
:10123000881FBB1F621773078407BA0720F0621B61
:10124000730B840BBA0BEE1F88F7E0950895E894B2
:1012500009C097FB3EF490958095709561957F4FFE
:101260008F4F9F4F9923A9F0F92F96E9BB279395AC
:10127000F695879577956795B795F111F8CFFAF4BC
:10128000BB0F11F460FF1BC06F5F7F4F8F4F9F4FED
:1012900016C0882311F096E911C0772321F09EE84B
:1012A000872F762F05C0662371F096E8862F70E0B1
:1012B00060E02AF09A95660F771F881FDAF7880F8B
:1012C0009695879597F90895990F0008550FAA0BE1
:1012D000E0E8FEEF16161706E807F907C0F0121649
:1012E0001306E407F50798F0621B730B840B950B4C
:1012F00039F40A2661F0232B242B252B21F40895A1
:101300000A2609F4A140A6958FEF811D811D08953D
:1013100097F99F6780E870E060E008959FEF80ECA8
:10132000089500240A94161617061806090608954B
:1013300000240A9412161306140605060895092EB1
:101340000394000C11F4882352F0BB0F40F4BF2B20
:1013500011F460FF04C06F5F7F4F8F4F9F4F089560
:1013600057FD9058440F551F59F05F3F71F0479556
:10137000880F97FB991F61F09F3F79F0879508953B
:10138000121613061406551FF2CF4695F1DF08C05A
:10139000161617061806991FF1CF86957105610577
:1013A00008940895E894BB2766277727CB0197F91F
:1013B00008950E94640908F48FEF08950E94F109CE
:1013C0000C949F090E94910938F00E94980920F01E
:1013D000952311F00C9488090C948E0911240C9417
:1013E000D3090E94B00970F3959FC1F3950F50E0A7
:1013F000551F629FF001729FBB27F00DB11D639FC7
:10140000AA27F00DB11DAA1F649F6627B00DA11D6C
:10141000661F829F2227B00DA11D621F739FB00D12
:10142000A11D621F839FA00D611D221F749F332782
:10143000A00D611D231F849F600D211D822F762F1B
:101440006A2F11249F5750409AF0F1F088234AF0F8
:10145000EE0FFF1FBB1F661F771F881F9150504064
:10146000A9F79E3F510580F00C9488090C94D3098C
:101470005F3FE4F3983ED4F3869577956795B795EB
:10148000F795E7959F5FC1F7FE2B880F911D969505
:10149000879597F90895DC01CB01FC01F999FECFFE
:1014A00006C0F2BDE1BDF89A319600B40D924150EC
:1014B0005040B8F70895DC01CB0103C02D910E9484
:1014C000660A41505040D0F70895262FF999FECF73
:1014D0001FBA92BD81BD20BD0FB6F894FA9AF99A51
:1014E0000FBE01960895F894FFCFB600CB00D6004A
:0C14F000ED00ED00F000ED00150117010B
:1014FC00CA261306D76411EB9424B499BADF00A161
:02150C0001E8F4
:00000001FF
