:100000000C9434000C9451000C9451000C94510049
:100010000C9451000C9451000C9451000C9451001C
:100020000C9451000C9451000C9451000C9451000C
:100030000C9451000C9451000C9451000C945100FC
:100040000C94FD010C9451000C9451000C9451003F
:100050000C9451000C94D3050C9451000C94510055
:100060000C9425030C94510011241FBECFEFD8E04F
:10007000DEBFCDBF11E0A0E0B1E0EEE3F8E102C0E9
:1000800005900D92A231B107D9F722E0A2E1B1E0CB
:1000900001C01D92AE30B207E1F70E944D080C94EA
:1000A000110C0C940000EEEAF1E080E091918927B8
:1000B00091E0EE3CF907D1F78093CE0180958093D3
:1000C000CF0142E250E070E060E08EEA91E00C94F3
:1000D000F90BEEEAF1E083E090E0918380838AE01F
:1000E00090E0A0E0B0E082839383A483B5838AE9A3
:1000F00099E9A9E1BFE386839783A087B18784E666
:1001000090E0A0E0B0E082879387A487B5878DE771
:1001100090E097878687108A118A128A138A148A38
:10012000158A168A178A108E118E128E138E148ECF
:10013000158E168E178E0C9453008F929F92AF924D
:10014000BF92EF92FF920F931F93CF93DF93CDB7A0
:10015000DEB768970FB6F894DEBF0FBECDBF7C0147
:100160004A015B01C801F701E00FF11FE081E15096
:10017000EC3070F4F0E0ED5EF34F0C94980921E15F
:1001800030E040E050E061E080E091E00E94000556
:1001900068960FB6F894DEBF0FBECDBFDF91CF914A
:1001A0001F910F91FF90EF90BF90AF909F908F9015
:1001B00008958091B001898321E030E040E050E073
:1001C00062E0CE010196E2CF23E082169104A10401
:1001D000B104F0F20296F701E80FF91F808190E078
:1001E000B0E0A0E08093B0019093B101A093B20180
:1001F000B093B301CDCFEFB7F8947091D401609173
:10020000D5015091D6014091D7013091D80120916C
:10021000D9019091DA018091DB01EFBF79836A8384
:100220005B834C833D832E839F83888728E030E067
:1002300040E050E064E0C5CF8FB7F8942091EC0126
:100240003091ED014091EE015091EF0129873A87FD
:100250004B875C872091F0013091F1014091F201D0
:100260005091F3012D873E874F87588B2091F401E1
:100270003091F5014091F6015091F701298B3A8BAD
:100280004B8B5C8B2091F8013091F9014091FA0180
:100290005091FB012D8B3E8B4F8B588F8FBF698503
:1002A0007A858B859C850E94960A7A8369836D8501
:1002B0007E858F8598890E94960A7C836B836989E5
:1002C0007A898B899C890E94960A7E836D836D89C9
:1002D0007E898F89988D0E94960A78876F8328E09F
:1002E00030E040E050E065E06CCF8091AE01898362
:1002F00021E030E040E050E067E063CF33E0831678
:100300009104A104B10408F443CFF8013296EE0D34
:10031000FF1D80818230A9F038F481110BC010924A
:10032000AF011092AE0134CF833009F031CF83E0BA
:1003300090E002C081E090E09093AF018093AE0125
:1003400027CF82E090E0F8CF0E9469000E949B07CF
:100350001FCF0E9453001CCF20E030E048EC52E455
:100360006091B4017091B5018091B6019091B7018F
:100370000E947C0B69877A878B879C8769857A8541
:100380008B859C850E94960A698321E030E040E0DD
:1003900050E06BE016CF43E084169104A104B10451
:1003A00008F4F6CE0296F701E80FF91F8081853632
:1003B00008F084E6282F30E050E040E029873A87B3
:1003C0004B875C87CA01B9010E94C50A20E030E072
:1003D00048EC52E469877A878B879C8769857A85A0
:1003E0008B859C850E94240A6093B4017093B501AB
:1003F0008093B6019093B701CBCE1F921FB61F9288
:1004000011240F931F932F933F934F935F936F93F9
:100410007F938F939F93AF93BF938091220190918D
:100420002301A0912401B091250100911E0110919A
:100430001F012091200130912101B901A8014D5FD8
:100440005F4F6F4F7F4F4D37510561057105B8F50F
:100450000196A11DB11D00911A0110911B0120915F
:100460001C0130911D010F5F1F4F2F4F3F4F009315
:100470001A0110931B0120931C0130931D018093DE
:10048000220190932301A0932401B093250140936E
:100490001E0150931F016093200170932101BF91B1
:1004A000AF919F918F917F916F915F914F913F910C
:1004B0002F911F910F911F901FBE1F901895B9018A
:1004C000A8014A575109610971090296A11DB11D80
:1004D000C2CFCF93DF9300D000D0CDB7DEB78FB7B8
:1004E000F8942091220130912301409124015091F0
:1004F000250129833A834B835C838FBF69817A818D
:100500008B819C810F900F900F900F90DF91CF9176
:100510000895CF93DF9300D000D0CDB7DEB72FB7CB
:10052000F89480911A0190911B01A0911C01B09147
:100530001D0146B550E070E060E0A89B08C04F3F49
:1005400051056105710519F00196A11DB11D2FBF5F
:10055000BA2FA92F982F8827840F951FA61FB71F82
:100560009C01AD0162E0220F331F441F551F6A95A5
:10057000D1F7CA01B9010F900F900F900F90DF9142
:10058000CF910895CF92DF92EF92FF92CF93DF93B6
:1005900000D000D000D0CDB7DEB76B017C010E9447
:1005A00089026D837E83C114D104E104F10469F4EE
:1005B00026960FB6F894DEBF0FBECDBFDF91CF9168
:1005C000FF90EF90DF90CF9008950E948902698399
:1005D0007A838B839C8389819A812D813E81821BC2
:1005E000930B883E9340F8F28D819E8188519C4FF9
:1005F0009E838D8391E0C91AD108E108F108D3CF19
:10060000019739F0880F991F880F991F029701975A
:10061000F1F708959FB7F89414BC83E085BD81E09D
:1006200080936E00E4E6F0E080818F7D80839FBF41
:10063000089510926E000895F894880F8093BA0080
:1006400085EC8093BC00789408950F920FB60F92BA
:100650001F9211242F933F934F935F936F937F9338
:100660008F939F93AF93BF93EF93FF938091B900C4
:10067000982F987F887E883AE1F1903831F5409143
:10068000BB0080916C0190916D01E0916A01F09145
:100690006B01019620E430E0B9010E9484098E17B5
:1006A0009F0799F0E0916C01F0916D01E259FE4FC6
:1006B000408380916C0190916D010196B9010E9477
:1006C000840990936D0180936C0185EC8093BC004C
:1006D000FF91EF91BF91AF919F918F917F916F911A
:1006E0005F914F913F912F911F900F900FBE0F90F0
:1006F000189520912801309129018091260190912F
:10070000270128173907B9F0E0912601F091270158
:10071000E65DFE4F20818091260190912701019690
:1007200060E470E00E948409909327018093260181
:100730002093BB00CACF20E0FBCFCF92DF92EF9295
:10074000FF920F931F93CF93DF9320916A01309113
:100750006B0180916C0190916D01821793070CF4ED
:1007600068C020916C0130916D0180916A01909177
:100770006B01281B253008F453C0E0E4F0E0A091A1
:100780006A01B0916B01A259BE4F8C918A3AC1F5B2
:1007900080916A0190916B010196BF010E948409CA
:1007A000DC01A259BE4F8C91853551F580916A01CB
:1007B00090916B010296BF010E948409DC01A2594D
:1007C000BE4F8C918A3AE1F480916A0190916B015D
:1007D0000396BF010E948409DC01A259BE4F8C918F
:1007E000853571F480916A0190916B010496BF0187
:1007F0000E948409DC01A259BE4F8C918A3A19F5F6
:10080000215080916A0190916B010196BF010E9475
:10081000840990936B0180936A01243009F0AFCF73
:10082000DF91CF911F910F91FF90EF90DF90CF90CC
:10083000089520916C0130916D0180916A01909131
:100840006B01205C96CF273058F380916A0190911C
:100850006B010596BF010E948409FC01E259FE4F1D
:10086000C081C95F2C17E0F220E084E090E0A0E0B6
:10087000B0E0CC2ED12CF12CE12C8C159D05AE05D1
:10088000BF0580F0222339F180916A0190916B01BC
:10089000049660E470E00E94840990936B01809359
:1008A0006A01BECF40916A0150916B01052E000C88
:1008B000660B770B480F591F6A1F7B1F4F73552715
:1008C0006627772742595E4FFA0130812327019628
:1008D000A11DB11DD2CFD0E000916A0110916B0132
:1008E0006E01F5E0CF1AD1080D2C000CEE08FF08C0
:1008F0000C5F1F4F012E000C220B330B40E450E025
:1009000060E070E08EE691E00E949D0080916A01B7
:1009100090916B018C0F9D1FBCCFCF92DF92EF9215
:10092000FF920F931F93CF93DF93FC016A017B012A
:10093000892B09F44FC0C114D104E104F10409F476
:1009400049C0409126015091270180912801909142
:100950002901841795070CF446C0809128019091D5
:1009600029014091260150912701841B950B092EE6
:10097000000CAA0BBB0B40E450E060E070E0481BA9
:10098000590B6A0B7B0B4C155D056E057F0510F14D
:1009900000E010E09801C0E4D0E0A0912801B091FF
:1009A00029018191A65DBE4F8C9380912801909181
:1009B00029010196BE010E94840990932901809328
:1009C00028010F5F1F4F2F4F3F4FC016D106E20681
:1009D000F30619F7DF91CF911F910F91FF90EF90E0
:1009E000DF90CF900895409126015091270180918A
:1009F000280190912901841B950B805C9F4FB7CFF4
:100A0000CF92DF92EF92FF921F93CF93DF93182F35
:100A1000D92FC62F69017A01E0912801F0912901AF
:100A2000E65DFE4F3AEA30838091280190912901DA
:100A30000196E0E4F0E0BF010E948409DC01A65DBC
:100A4000BE4F25E52C9380912801909129010296B3
:100A5000BF010E948409DC01A65DBE4F3C938091DA
:100A60002801909129010396BF010E948409DC01AD
:100A7000A65DBE4F2C938091280190912901049688
:100A8000BF010E948409DC01A65DBE4FCC9380911A
:100A90002801909129010596BF010E94840922E056
:100AA0002C0DFC01E65DFE4F20832C27E12FFD2F4E
:100AB00040E050E0BA01809128019091290106960A
:100AC000092E000CAA0BBB0B840F951FA61FB71F86
:100AD0008F739927AA27BB274C155D056E057F05E7
:100AE000C9F4865D9E4FFC0120838091280190917E
:100AF00029010796480F591F4F7355275093290115
:100B000040932801DF91CF911F91FF90EF90DF90EC
:100B1000CF9008953191865D9E4FDC013C93232751
:100B20004F5F5F4F6F4F7F4FC6CFCF93E09128014C
:100B3000F0912901E65DFE4FCAEAC0838091280149
:100B400090912901019620E430E0B9010E948409C6
:100B5000FC01E65DFE4F45E54083809128019091C0
:100B600029010296B9010E948409FC01E65DFE4F4D
:100B7000C08380912801909129010396B9010E94B8
:100B80008409FC01E65DFE4F40838091280190912D
:100B900029010496B9010E94840990932901809348
:100BA0002801CF9108951F920F920FB60F92112432
:100BB0002F923F924F925F926F927F928F929F926D
:100BC000AF92BF92CF92DF92EF92FF920F931F935B
:100BD0002F933F934F935F936F937F938F939F9345
:100BE000AF93BF93EF93FF93CF93DF93CDB7DEB770
:100BF0002797DEBFCDBF20917C002E832B5F237013
:100C00002D834090D0015090D1016090D20170901E
:100C1000D301E22FF0E034E0239F80011124A801EA
:100C200042505E4F5A01DA01CD90DD90ED90FC907C
:100C3000411451046104710409F0DFC08090780010
:100C400090907900EE0FFF1FEC52FE4F9182808250
:100C50004090B4015090B5016090B6017090B7011A
:100C6000A301920160E070E080E89FE30E94B20976
:100C7000F801E451FE4F5F012081318142815381AF
:100C800069837A838B839C8369817A818B819C8140
:100C90000E947C0B1B018F839D83940150E040E0F8
:100CA00029833A834B835C83CA01B4010E94C50A3D
:100CB000A301920169837A838B839C8369817A8102
:100CC0008B819C810E947C0B9B01AC0129823A8222
:100CD0008F818B839D819C8369817A818B819C81AB
:100CE0000E94B309762E872E982E9D83862F982DED
:100CF000A92DBD81F50180839183A283B383A701D0
:100D0000960179828A829B82BC8369817A818B81F8
:100D10009C810E94770B18160CF068C0A701960101
:100D200069817A818B819C810E94B209D62EE72E3F
:100D3000F82E9983F801E452FE4F862F9E2DAF2D99
:100D4000B98180839183A283B3836091B001709154
:100D5000B1018091B2019091B3010E94C50A2D2D7D
:100D60003E2D4F2D598169837A838B839C836981C2
:100D70007A818B819C810E941F0A87FF06C081E0D7
:100D800090E09093FD018093FC018E818F5F8370D2
:100D9000FE81F07EF82BF0937C0027960FB6F89436
:100DA000DEBF0FBECDBFDF91CF91FF91EF91BF911D
:100DB000AF919F918F917F916F915F914F913F91F3
:100DC0002F911F910F91FF90EF90DF90CF90BF90E8
:100DD000AF909F908F907F906F905F904F903F90DB
:100DE0002F900F900FBE0F901F901895272D382D24
:100DF000492D5D81C701B60197CF80917800909110
:100E000079009C0150E040E029833A834B835C8366
:100E1000CA01B9010E94C50AA701960169837A83B4
:100E20008B839C8369817A818B819C810E94B30929
:100E3000D5016D937D938D939C931397BD81B330B2
:100E400009F0A3CFE1E04E1A510861087108409201
:100E5000D0015092D1016092D2017092D301452805
:100E60004628472809F091CF6091B8017091B901E7
:100E70008091BA019091BB010E94C50AF62E072FFE
:100E8000182F9983262F372F482F592F6091FE0155
:100E90007091FF0180910002909101020E94240A4A
:100EA0006093FE017093FF01809300029093010212
:100EB0002F2D302F412F5981609102027091030232
:100EC00080910402909105020E94240A609302021C
:100ED0007093030280930402909305022F2D302F0C
:100EE000412F59816091060270910702809108029A
:100EF000909109020E94240A6093060270930702EF
:100F000080930802909309022F2D302F412F598191
:100F100060910A0270910B0280910C0290910D0277
:100F20000E94240A60930A0270930B0280930C02C1
:100F300090930D022ACF8FB7F894EEEFF1E0108274
:100F400011821282138214821582168217821086F1
:100F5000118612861386148615861686178640918A
:100F6000B8015091B9016091BA017091BB014093F1
:100F7000D0015093D1016093D2017093D3018FBF00
:100F80000895CF93DF931092D0011092D101109267
:100F9000D2011092D3011092FD011092FC01EEEFEC
:100FA000F1E084ED91E0CCEED1E04CED51E0119216
:100FB000119211921192DC011D921D92CD01199294
:100FC000199219921992DA011D921D921D921D9289
:100FD000AD01B2E0EE30FB0751F7CFB7F89420E057
:100FE00030E0A9016091FE017091FF018091000243
:100FF000909101020E941F0A81112FC020E030E071
:10100000A901609102027091030280910402909103
:1010100005020E941F0A811120C020E030E0A901D2
:101020006091060270910702809108029091090276
:101030000E941F0A811111C020E030E0A9016091D7
:101040000A0270910B0280910C0290910D020E9495
:101050001F0A811102C00E949B07809164008E7F4D
:101060008093640080E480937C0010927B008FEB7F
:1010700080937A00CFBF80917A00806480937A0059
:1010800090917C0080917C0083708F5F907E892B93
:1010900080937C00DF91CF9108950E940A03789499
:1010A000C2E0C4B9C5B968EE73E080E090E00E9488
:1010B000C20285B18C2785B968EE73E080E090E0CC
:1010C0000E94C20285B18C2785B968EE73E080E08A
:1010D00090E00E94C20285B1C827C5B968EE73E0EE
:1010E00080E090E00E94C202219A299822981092F2
:1010F000C10081E10E941C0342E250E070E060E028
:101100008EEA91E00E94E90BEEEAF1E080E0919135
:10111000892791E0EE3CF907D1F79091CE01891330
:101120006AC080959091CF01891365C08091BE01FE
:101130009091BF01A091C001B091C1018093FE01C7
:101140009093FF01A0930002B09301028091C2012D
:101150009091C301A091C401B091C5018093020296
:1011600090930302A0930402B09305028091C601FC
:101170009091C701A091C801B091C9018093060266
:1011800090930702A0930802B09309028091CA01CC
:101190009091CB01A091CC01B091CD0180930A0236
:1011A00090930B02A0930C02B0930D020E94C10712
:1011B0000E949D038091AE019091AF018230910514
:1011C00009F462C0D8F42091FC013091FD014091F6
:1011D0001601509117016091180170911901892B26
:1011E00009F047C0232B69F0452B462B472B49F4C8
:1011F0001A9B07C044C00E946900D8CF039709F426
:101200005FC08091160190911701A0911801B091D3
:101210001901892B8A2B8B2B59F20E946902462FC8
:10122000572FBC010091120110911301209114015C
:10123000309115018091160190911701A09118012C
:10124000B0911901800F911FA21FB31F8017910742
:10125000A207B30708F048C084179507A607B70789
:1012600008F0A6CF401751076207730708F0A0CF18
:1012700041C0232B31F2452B462B472B11F6109200
:10128000FD011092FC0102C01A9BBBCF299A8091EC
:10129000BC019091BD01B0E0A0E080931601909355
:1012A0001701A0931801B09319010E94690260937D
:1012B0001201709313018093140190931501A1CF33
:1012C0008091FC019091FD01892B09F491CF8091CF
:1012D000160190911701A0911801B0911901892B65
:1012E0008A2B8B2B61F284CF84179507A607B7074B
:1012F00008F0B8CF10921601109217011092180141
:1013000010921901299854CF97FB072E16F40094D8
:1013100007D077FD09D00E949E0907FC05D03EF456
:10132000909581959F4F0895709561957F4F089591
:10133000EE0FFF1F0590F491E02D0994AA1BBB1B33
:1013400051E107C0AA1FBB1FA617B70710F0A61BC5
:10135000B70B881F991F5A95A9F780959095BC01E6
:10136000CD0108955058BB27AA270E94CA090C94A2
:101370003D0B0E942F0B38F00E94360B20F039F401
:101380009F3F19F426F40C942C0B0EF4E095E7FB28
:101390000C94260BE92F0E944E0B58F3BA176207E4
:1013A00073078407950720F079F4A6F50C94700B69
:1013B0000EF4E0950B2EBA2FA02D0B01B901900170
:1013C0000C01CA01A0011124FF27591B99F0593FB4
:1013D00050F4503E68F11A16F040A22F232F342FFC
:1013E0004427585FF3CF469537952795A795F0404A
:1013F0005395C9F77EF41F16BA0B620B730B840B5F
:10140000BAF09150A1F0FF0FBB1F661F771F881F16
:10141000C2F70EC0BA0F621F731F841F48F487956E
:1014200077956795B795F7959E3F08F0B0CF939560
:10143000880F08F09927EE0F9795879508950E94D9
:10144000020B08F481E008950E94380A0C943D0BC9
:101450000E94360B58F00E942F0B40F029F45F3F9A
:1014600029F00C94260B51110C94710B0C942C0B3D
:101470000E944E0B68F39923B1F3552391F3951B0A
:10148000550BBB27AA2762177307840738F09F5FA5
:101490005F4F220F331F441FAA1FA9F335D00E2E12
:1014A0003AF0E0E832D091505040E695001CCAF77F
:1014B0002BD0FE2F29D0660F771F881FBB1F261742
:1014C00037074807AB07B0E809F0BB0B802DBF0119
:1014D000FF2793585F4F3AF09E3F510578F00C94E8
:1014E000260B0C94710B5F3FE4F3983ED4F3869582
:1014F00077956795B795F7959F5FC9F7880F911D09
:101500009695879597F90895E1E0660F771F881FF4
:10151000BB1F621773078407BA0720F0621B730BA7
:10152000840BBA0BEE1F88F7E09508950E94560BC6
:1015300088F09F5798F0B92F9927B751B0F0E1F094
:10154000660F771F881F991F1AF0BA95C9F714C044
:10155000B13091F00E94700BB1E008950C94700BC3
:10156000672F782F8827B85F39F0B93FCCF386957D
:1015700077956795B395D9F73EF4909580957095DA
:1015800061957F4F8F4F9F4F0895E89409C097FB57
:101590003EF490958095709561957F4F8F4F9F4F4A
:1015A0009923A9F0F92F96E9BB279395F69587958E
:1015B00077956795B795F111F8CFFAF4BB0F11F451
:1015C00060FF1BC06F5F7F4F8F4F9F4F16C08823F8
:1015D00011F096E911C0772321F09EE8872F762F2E
:1015E00005C0662371F096E8862F70E060E02AF06F
:1015F0009A95660F771F881FDAF7880F969587955B
:1016000097F90895990F0008550FAA0BE0E8FEEF2F
:1016100016161706E807F907C0F012161306E407B6
:10162000F50798F0621B730B840B950B39F40A26AF
:1016300061F0232B242B252B21F408950A2609F48D
:10164000A140A6958FEF811D811D089597F99F6791
:1016500080E870E060E008959FEF80EC089500243A
:101660000A941616170618060906089500240A9407
:1016700012161306140605060895092E0394000C8D
:1016800011F4882352F0BB0F40F4BF2B11F460FF1C
:1016900004C06F5F7F4F8F4F9F4F089557FD905845
:1016A000440F551F59F05F3F71F04795880F97FB26
:1016B000991F61F09F3F79F08795089512161306E0
:1016C0001406551FF2CF4695F1DF08C0161617060F
:1016D0001806991FF1CF8695710561050894089544
:1016E000E894BB2766277727CB0197F908950E94D6
:1016F000020B08F48FEF08950E948F0B0C943D0BA2
:101700000E942F0B38F00E94360B20F0952311F029
:101710000C94260B0C942C0B11240C94710B0E942E
:101720004E0B70F3959FC1F3950F50E0551F629FCC
:10173000F001729FBB27F00DB11D639FAA27F00D2A
:10174000B11DAA1F649F6627B00DA11D661F829F51
:101750002227B00DA11D621F739FB00DA11D621F36
:10176000839FA00D611D221F749F3327A00D611D53
:10177000231F849F600D211D822F762F6A2F112435
:101780009F5750409AF0F1F088234AF0EE0FFF1F68
:10179000BB1F661F771F881F91505040A9F79E3FBF
:1017A000510580F00C94260B0C94710B5F3FE4F311
:1017B000983ED4F3869577956795B795F795E79515
:1017C0009F5FC1F7FE2B880F911D9695879597F91E
:1017D0000895DC01CB01FC01F999FECF06C0F2BDF2
:1017E000E1BDF89A319600B40D9241505040B8F7DF
:1017F0000895DC01CB0103C02D910E94040C4150DF
:101800005040D0F70895262FF999FECF1FBA92BD08
:1018100081BD20BD0FB6F894FA9AF99A0FBE0196D1
:101820000895F894FFCFBF00D900E400FB001C012D
:0E1830007E017501A401A601A901AC01CB0146
:10183E00CA261306D76411EB9424B499BADF00A11B
:02184E00010097
:00000001FF
