:100000000C9434000C9451000C9451000C94510049
:100010000C9451000C9451000C9451000C9451001C
:100020000C9451000C9451000C9451000C9451000C
:100030000C9451000C9451000C9451000C945100FC
:100040000C942A020C9451000C9451000C94510011
:100050000C9451000C940C060C9451000C9451001B
:100060000C9424030C94510011241FBECFEFD8E050
:10007000DEBFCDBF12E0A0E0B1E0E8E5FCE102C0E8
:1000800005900D92AA31B107D9F713E0AAE1B2E0C9
:1000900001C01D92A630B107E1F70E941A010C942D
:1000A0002A0E0C940000E6EBF2E090E08191982794
:1000B00082E0E63CF807D1F7908390959183CF01D9
:1000C000409760E070E042E150E00E94120E089517
:1000D0000F931F93DF93CF9300D0CDB7DEB7FC0112
:1000E000E00FF11FE081E63050F4E430F0F5E2304B
:1000F000C1F0E33018F5E13009F095C00BC0E730EE
:10010000A1F1E730A8F1E83009F459C0E93009F06D
:100110008AC087C080E091E042E150E060E070E09A
:100120000AC08091B80289838A83CE01019642E099
:1001300050E060E070E00E94A20375C043305105BA
:100140006105710508F46FC0F8013296E80FF91FD8
:10015000808190E0A0E0B0E08093B8029093B90273
:10016000A093BA02B093BB025EC08091B602DBCF0F
:10017000433051056105710508F455C0F801329608
:10018000E80FF91F0081013041F0013048F00230E2
:1001900061F0033009F047C00BC081E090E00AC075
:1001A0001092B7021092B6023EC082E090E002C008
:1001B00083E090E09093B7028093B60234C083E06E
:1001C00090E09093B7028093B6028AE090E0A0E0BE
:1001D000B0E08093B8029093B902A093BA02B093B2
:1001E000BB028DEC9CECACECBEE38093BC02909324
:1001F000BD02A093BE02B093BF0288EE93E0A0E0E0
:10020000B0E08093C0029093C102A093C202B09369
:10021000C3028CE390E09093C5028093C4020E94D5
:1002200053000E9432070F900F90CF91DF911F91E2
:100230000F910895EF92FF920F931F930E940E0368
:100240007894229A2A981092C10081E10E941B039F
:1002500086EB92E060E070E042E150E00E94020E26
:10026000E6EBF2E020E08191282782E0E63CF80707
:10027000D1F78081281749F430E02095309580919E
:10028000C70290E02817390791F183E090E090933E
:10029000B7028093B6028AE090E0A0E0B0E08093DD
:1002A000B8029093B902A093BA02B093BB028DEC4E
:1002B0009CECACECBEE38093BC029093BD02A09397
:1002C000BE02B093BF0288EE93E0A0E0B0E080935E
:1002D000C0029093C102A093C202B093C3028CE308
:1002E00090E09093C5028093C4020E9453000E9444
:1002F00067070E9432070E940B058091B602909119
:10030000B7028130910559F081309105E8F08230D3
:10031000910509F43EC0039709F056C028C08091AA
:10032000F4029091F502892B09F44EC080911A02D3
:1003300090911B02A0911C02B0911D020097A10593
:10034000B10509F041C027C08091F4029091F502F7
:10035000892BD1F180911A0290911B02A0911C026D
:10036000B0911D020097A105B10571F512C08091F1
:10037000F4029091F502892B61F080911A0290911C
:100380001B02A0911C02B0911D020097A105B105AE
:1003900011F0199B19C02A9A8091C4029091C5024C
:1003A000A0E0B0E080931A0290931B02A0931C027D
:1003B000B0931D020E94A40260931E0270931F025C
:1003C000809320029093210280911A0290911B0247
:1003D000A0911C02B0911D020097A105B10509F47E
:1003E0008ACF0E94A4027B018C0180911E02909111
:1003F0001F02A0912002B091210220911A02309197
:100400001B0240911C0250911D02280F391F4A1FE8
:100410005B1F281739074A075B0738F42E153F057D
:100420004007510708F067CF05C02E153F0540076C
:10043000510730F0E816F9060A071B0708F05BCFF2
:1004400010921A0210921B0210921C0210921D02AE
:100450002A9851CF1F920F920FB60F921124EF924C
:10046000FF920F931F932F933F934F935F936F933D
:100470008F939F93AF93BF932091220230912302D9
:1004800040912402509125028091260290912702EA
:10049000A0912802B09129022A5F3E4F4F4F5F4F33
:1004A00062E1E62EF12C012D112DE80EF91E0A1F36
:1004B0001B1F6DE7E616F1040105110580F065E9E3
:1004C000E62E6FEFF62E6FEF062F6FEF162FE80E6A
:1004D000F91E0A1F1B1F2F5F3F4F4F4F5F4F809129
:1004E0002A0290912B02A0912C02B0912D0201962C
:1004F000A11DB11D80932A0290932B02A0932C0280
:10050000B0932D02209322023093230240932402C1
:1005100050932502E0922602F092270200932802CF
:1005200010932902BF91AF919F918F916F915F912D
:100530004F913F912F911F910F91FF90EF900F904E
:100540000FBE0F901F9018958FB7F894209122023C
:100550003091230240912402509125028FBFB901AE
:10056000CA0108956FB7F89420912A0230912B02A6
:1005700040912C0250912D0286B590E0A0E0B0E0B1
:10058000A89B09C08F3F9105A105B10521F02F5F00
:100590003F4F4F4F5F4F6FBF542F432F322F2227B4
:1005A000280F391F4A1F5B1F72E0220F331F441FA1
:1005B000551F7A95D1F7B901CA010895EF92FF92BC
:1005C0000F931F93CF93DF937B018C010E94B202A4
:1005D000EB010EC00E94B2026C1B7D0B685E734083
:1005E000C8F3C851DC4F0894E108F108010911096A
:1005F000E114F1040105110569F7DF91CF911F9115
:100600000F91FF90EF900895019739F0880F991F8F
:10061000880F991F02970197F1F708958FB7F89403
:1006200014BC93E095BD91E090936E008FBF089548
:1006300010926E000895F894880F8093BA0085ECAC
:100640008093BC00789408951F920F920FB60F927A
:1006500011242F933F934F935F936F937F938F93C7
:100660009F93AF93BF93EF93FF938091B90090E076
:10067000887F9070883A910571F1883B910559F116
:100680008038910509F04AC04091BB008091340246
:10069000909135022091320230913302019660E44C
:1006A00070E00E94A40D82179307C1F1E09134021B
:1006B000F0913502EA5CFD4F4083809134029091C5
:1006C0003502019660E470E00E94A40D909335021B
:1006D0008093340223C020912E0230912F0280910A
:1006E0003002909131022817390711F4E0E014C06C
:1006F000E0913002F0913102EA58FD4FE0818091A3
:10070000300290913102019660E470E00E94A40DE5
:100710009093310280933002E093BB0085EC80938C
:10072000BC00FF91EF91BF91AF919F918F917F910D
:100730006F915F914F913F912F910F900FBE0F904E
:100740001F901895AF92BF92CF92DF92EF92FF92D7
:100750000F931F93CF93DF93EC015A016B01009726
:1007600009F45DC0411551056105710509F457C0D3
:10077000209130023091310280912E0290912F020F
:10078000821793074CF060912E0270912F02809196
:100790003002909131020AC0809130029091310272
:1007A00060912E0270912F02605C7F4F681B790B65
:1007B0009B01442737FD4095542F80E490E0A0E052
:1007C000B0E0821B930BA40BB50B8A159B05AC05FF
:1007D000BD0528F1EE24FF248701E0912E02F0915F
:1007E0002F02DE01AE0DBF1D8C91EA58FD4F8083B4
:1007F00080912E0290912F02019660E470E00E9499
:10080000A40D90932F0280932E020894E11CF11CFA
:10081000011D111DEA14FB040C051D05F0F2DF910A
:10082000CF911F910F91FF90EF90DF90CF90BF90ED
:10083000AF900895AF92BF92CF92DF92FF920F9345
:100840001F93082FF92E162F59016A01E0912E02ED
:10085000F0912F02EA58FD4F3AEA308380912E0240
:1008600090912F02019660E470E00E94A40DFC01BB
:10087000EA58FD4F25E5208380912E0290912F02AA
:10088000029660E470E00E94A40DFC01EA58FD4F5E
:10089000308380912E0290912F02039660E470E0E5
:1008A0000E94A40DFC01EA58FD4F208380912E0286
:1008B00090912F02049660E470E00E94A40DFC0168
:1008C000EA58FD4F108380912E0290912F020596D9
:1008D00060E470E00E94A40DFC018A2D8E5FEA584E
:1008E000FD4F80831827202F3F2DC901FC0140E0D8
:1008F00050E060E070E01CC080912E0290912F02C9
:100900000696AA2797FDA095BA2F840F951FA61FBC
:10091000B71F8F739070A070B07020818A589D4F60
:10092000DC012C93819118274F5F5F4F6F4F7F4FF2
:100930004A155B056C057D05F8F280912E029091B9
:100940002F020696AA2797FDA095BA2F8A0D9B1D08
:10095000AC1DBD1D8F739070A070B0708A589D4FF4
:10096000FC01108380912E0290912F0207968A0D30
:100970009B1D8F73907090932F0280932E021F9176
:100980000F91FF90DF90CF90BF90AF9008950F939D
:100990001F93E0912E02F0912F0206E712E0E00F84
:1009A000F11F2AEA208380912E0290912F02019656
:1009B00060E470E00E94A40DFC01E00FF11F45E52A
:1009C000408380912E0290912F02029660E470E0A5
:1009D0000E94A40DFC01E00FF11F208380912E02E4
:1009E00090912F02039660E470E00E94A40D080F1E
:1009F000191FF801408380912E0290912F020496D6
:100A000060E470E00E94A40D90932F0280932E0268
:100A10001F910F910895AF92BF92CF92DF92EF9204
:100A2000FF920F931F9320913202309133028091F5
:100A3000340290913502821793075CF020913402C2
:100A4000309135028091320290913302422F481B3F
:100A50000BC0809134029091350220913202309186
:100A60003302482F405C421B453008F4CCC0E09173
:100A70003202F0913302EA5CFD4F80818A3A09F03C
:100A80003FC08091320290913302019660E470E0A1
:100A90000E94A40DFC01EA5CFD4F8081853581F543
:100AA0008091320290913302029660E470E00E94DD
:100AB000A40DFC01EA5CFD4F80818A3A09F5809122
:100AC000320290913302039660E470E00E94A40D1C
:100AD000FC01EA5CFD4F8081853591F48091320202
:100AE00090913302049660E470E00E94A40DFC0132
:100AF000EA5CFD4F80818A3A19F0473080F483C068
:100B000041508091320290913302019660E470E08E
:100B10000E94A40D9093330280933202A5CF80915E
:100B2000320290913302059660E470E00E94A40DB9
:100B3000FC01EA5CFD4FE081E95F4E1708F463C0F9
:100B400024E030E040E050E060E0EE2EFF2400E0E2
:100B500010E019C08091320290913302AA2797FDCC
:100B6000A095BA2F820F931FA41FB51F8F7390708B
:100B7000A070B0708A5C9D4FDC018C9168272F5F5C
:100B80003F4F4F4F5F4F2E153F054007510710F362
:100B9000662371F08091320290913302049660E4F2
:100BA00070E00E94A40D90933302809332022BC018
:100BB0000091320210913302AE2EBB240C5F1F4F06
:100BC000222717FD2095322F8BEF9FEFA80EB91E1D
:100BD0006501EE24D7FCE094FE2CA5E0B0E0AA0E5F
:100BE000BB1E86E392E040E450E060E070E00E94CB
:100BF00068008091320290913302A80EB91EB09223
:100C00003302A09232021F910F91FF90EF90DF907C
:100C1000CF90BF90AF9008951F920F920FB60F9292
:100C200011242F923F924F925F926F927F928F92F8
:100C30009F92AF92BF92CF92DF92EF92FF920F936B
:100C40001F932F933F934F935F936F937F938F9354
:100C50009F93AF93BF93EF93FF93DF93CF9300D016
:100C60000F92CDB7DEB740917C004983242F2F5FD0
:100C700023708091C8029091C902A091CA02B091DC
:100C8000CB02E22FF0E0FB83EA830097A105B105D8
:100C900009F088C0E0907800F0907900EE0FFF1F17
:100CA000E453FD4FF182E0824090BC025090BD02BF
:100CB0006090BE027090BF028A809B80880C991C55
:100CC000880C991C24EE222E22E0322E280C391C8E
:100CD00060E070E080E89FE3A30192010E940209B6
:100CE000F10120813181428153810E9460095B01C1
:100CF0006C0100E010E0C801B7010E94360BA301AF
:100D000092010E9460099B01AC01C601B5010E94DD
:100D100033097B018C01F1016083718382839383AA
:100D200046EF52E0840E951EF40180809180A280EF
:100D3000B380A50194010E94060B18162CF4C8017B
:100D4000B701A501940104C0C501B401A801970130
:100D50000E9402097B018C014A815B81440F551F6F
:100D6000440F551F4C525D4FFA01E082F18202831D
:100D700013836091B8027091B9028091BA02909188
:100D8000BB020E94360B9B01AC01C801B7010E9457
:100D9000060B1816CCF581E090E09093F502809355
:100DA000F40232C06091780070917900CA80DB80D3
:100DB000CC0CDD1CCC0CDD1C46EF52E0C40ED51E65
:100DC00080E090E00E94360B7B018C016091C002B4
:100DD0007091C1028091C2029091C3020E94360BB1
:100DE0009B01AC01C801B7010E945A0A9B01AC01EA
:100DF000F60160817181828193810E943309F6013D
:100E0000608371838283938389818F5F8370F9818B
:100E1000F07E8F2B80937C000F900F900F90CF91DE
:100E2000DF91FF91EF91BF91AF919F918F917F9152
:100E30006F915F914F913F912F911F910F91FF9073
:100E4000EF90DF90CF90BF90AF909F908F907F906A
:100E50006F905F904F903F902F900F900FBE0F902C
:100E60001F90189580E090E0A0E0B0E08093F6023B
:100E70009093F702A093F802B093F9028093FA02DC
:100E80009093FB02A093FC02B093FD028093FE02BC
:100E90009093FF02A0930003B09301038093020399
:100EA00090930303A0930403B09305038091C002C1
:100EB0009091C102A091C202B091C3028093C80276
:100EC0009093C902A093CA02B093CB0208951092E6
:100ED000C8021092C9021092CA021092CB0210925C
:100EE000F5021092F402ACECB2E080E090E020E079
:100EF00030E040E050E0FC01EA50FD4F20833183B8
:100F0000428353831D921D92FC01EC51FD4F2083BF
:100F1000318342835383FC01EC52FD4F20833183A4
:100F20004283538304968031910529F79FB7F89443
:100F3000809164008E7F8093640080E480937C00C5
:100F400010927B008FEB80937A009FBF80917A0094
:100F5000806480937A0090917C0080917C00837003
:100F60008F5F907E892B80937C000895A0E0B0E095
:100F7000ECEBF7E00C94CB0DDC012B01FA019C911A
:100F8000923008F439C1EB018881823008F433C112
:100F9000943069F4843009F02FC111969C91119717
:100FA0008981981709F428C1A2E1B1E025C18430F4
:100FB00009F421C18230A9F4923009F01DC19A01CF
:100FC000AD0188E0EA010990AE01E90109929E01B4
:100FD0008150C1F7E201898111969C918923818317
:100FE00008C1923009F407C112962D903C901397D6
:100FF000EB018A819B811496AD90BD90CD90DC90E1
:101000001797EC80FD800E811F819101281B390B01
:10101000B90137FF04C066277727621B730B603264
:1010200071050CF061C0121613066CF5370148010A
:10103000062E04C096948794779467940A94D2F706
:1010400021E030E040E050E004C0220F331F441F95
:10105000551F6A95D2F721503040404050402E2114
:101060003F2140235123211531054105510521F030
:1010700021E030E040E050E079018A01E628F728DD
:10108000082919293CC0232BD1F1260E371E350122
:101090004601062E04C096948794779467940A9428
:1010A000D2F721E030E040E050E004C0220F331FCF
:1010B000441F551F6A95D2F72150304040405040A0
:1010C0002A213B214C215D21211531054105510586
:1010D00021F021E030E040E050E059016A01A6280B
:1010E000B728C828D9280BC0821593052CF01C01FD
:1010F000AA24BB24650103C0EE24FF2487011196B6
:101100009C91D20111968C91981709F445C09923AE
:1011100039F0A80197012A193B094C095D0906C05D
:10112000A60195012E193F09400B510B57FD08C030
:1011300011823382228224833583468357831DC0E4
:1011400081E081833382228288279927DC01821BF8
:10115000930BA40BB50B84839583A683B7830DC033
:10116000220F331F441F551F248335834683578323
:101170008281938101979383828324813581468183
:101180005781DA01C9010197A109B1098F5F9F4F0A
:10119000AF4FBF4328F30BC0918333822282EA0C06
:1011A000FB1C0C1D1D1DE482F5820683178383E062
:1011B0008083248135814681578157FF1AC0C90138
:1011C000AA2797FDA095BA2F81709070A070B0707B
:1011D0005695479537952795822B932BA42BB52BA6
:1011E00084839583A683B7838281938101969383B9
:1011F0008283DF0101C0D201CD01CDB7DEB7E2E1CC
:101200000C94E70DA0E2B0E0E8E0F9E00C94D70D13
:1012100069837A838B839C832D833E834F83588796
:10122000E9E0EE2EF12CEC0EFD1ECE010196B70189
:101230000E94D30C8E010F5E1F4FCE010596B801A0
:101240000E94D30C8A8991E089278A8BC701B80153
:10125000AE01475E5F4F0E94B6070E94FE0BA0964C
:10126000E6E00C94F30DA0E2B0E0E9E3F9E00C94C1
:10127000D70D69837A838B839C832D833E834F8331
:101280005887F9E0EF2EF12CEC0EFD1ECE010196F1
:10129000B7010E94D30C8E010F5E1F4FCE01059641
:1012A000B8010E94D30CC701B801AE01475E5F4F81
:1012B0000E94B6070E94FE0BA096E6E00C94F30D88
:1012C000A0E2B0E0E6E6F9E00C94CB0D69837A8306
:1012D0008B839C832D833E834F835887CE01019659
:1012E000BE01675F7F4F0E94D30CCE010596BE0101
:1012F0006F5E7F4F0E94D30C9985923088F0898968
:101300008230C8F0943019F4823051F404C0843033
:1013100029F4923081F482E191E0C6C0923049F420
:1013200020E09A858A89981321E02A87CE010996C0
:10133000BBC0823049F420E09A858A89981321E065
:101340002A8BCE014196B0C02D843E844F845888AC
:101350006D887E888F88988CEE24FF248701AA24CC
:10136000BB24650140E050E060E070E0E0E0F0E0C8
:10137000C10181709070892BE9F0E60CF71C081D03
:10138000191D9A01AB012A0D3B1D4C1D5D1D80E00E
:1013900090E0A0E0B0E0E614F7040805190520F499
:1013A00081E090E0A0E0B0E0BA01A901480F591F28
:1013B0006A1F7B1FAA0CBB1CCC1CDD1C97FE08C03F
:1013C00081E090E0A0E0B0E0A82AB92ACA2ADB2A8E
:1013D0003196E032F10549F0660C771C881C991CA7
:1013E0005694479437942794C3CFFA85EA892B897A
:1013F0003C898B859C85280F391F2E5F3F4F17C076
:10140000CA0181709070892B61F016950795F79449
:10141000E79480E090E0A0E0B0E8E82AF92A0A2BFF
:101420001B2B76956795579547952F5F3F4F77FD17
:10143000E7CF0CC0440F551F661F771F17FD416093
:10144000EE0CFF1C001F111F21503040403090E077
:10145000590790E0690790E4790760F32B8F3C8F80
:10146000DB01CA018F779070A070B0708034910555
:10147000A105B10561F447FD0AC0E114F1040105BD
:10148000110529F0405C5F4F6F4F7F4F40781A8EF7
:10149000FE1711F081E08A8F4D8F5E8F6F8F78A3DA
:1014A00083E0898FCE0149960E94FE0BA096E2E16F
:1014B0000C94E70DA8E1B0E0E0E6FAE00C94D30D5F
:1014C00069837A838B839C832D833E834F835887E4
:1014D000B9E0EB2EF12CEC0EFD1ECE010196B7010A
:1014E0000E94D30C8E010F5E1F4FCE010596B801EE
:1014F0000E94D30C2985223008F47EC0398932300D
:1015000010F4B8017CC08A859A8989278A8724309B
:1015100011F0223031F4231709F06EC062E171E05E
:101520006EC0343039F41D861E861F86188A1C86CC
:101530001B8604C0323021F484E08987B7015FC084
:101540002B853C858B899C89281B390B3C872B87F5
:10155000ED84FE840F851889AD88BE88CF88D88C2D
:10156000EA14FB040C051D0540F4EE0CFF1C001FE3
:10157000111F215030403C872B8720E030E040E0B5
:1015800050E080E090E0A0E0B0E460E070E0EA14B9
:10159000FB040C051D0540F0282B392B4A2B5B2B37
:1015A000EA18FB080C091D09B695A795979587952C
:1015B000EE0CFF1C001F111F6F5F7F4F6F31710515
:1015C00031F7DA01C9018F779070A070B070803464
:1015D0009105A105B10561F427FD0AC0E114F104EC
:1015E0000105110529F0205C3F4F4F4F5F4F2078D8
:1015F0002D873E874F87588BBE01675F7F4FCB019A
:101600000E94FE0B6896EAE00C94EF0DA8E1B0E0B2
:10161000ECE0FBE00C94D70D69837A838B839C8389
:101620002D833E834F83588789E0E82EF12CEC0E02
:10163000FD1ECE010196B7010E94D30C8E010F5EF4
:101640001F4FCE010596B8010E94D30C89858230C8
:1016500040F08989823028F0C701B8010E944B0D03
:1016600001C08FEF6896E6E00C94F30DA8E0B0E0BF
:10167000ECE3FBE00C94D30D7B018C01611571054B
:101680008105910519F482E0898360C083E0898334
:101690008EE1C82ED12CDC82CB82ED82FE820F83BC
:1016A0001887C801B7010E94AF0BFC013197F7FF03
:1016B0003BC0222733272E1B3F0B57016801022E08
:1016C00004C0D694C794B794A7940A94D2F740E084
:1016D00050E060E070E081E090E0A0E0B0E004C0A5
:1016E000880F991FAA1FBB1F2A95D2F70197A1093E
:1016F000B1098E219F21A023B1230097A105B10537
:1017000021F041E050E060E070E04A295B296C295B
:101710007D294D835E836F8378878EE190E08E1BF9
:101720009F0B9C838B8312C0309781F00E2E04C0D8
:10173000EE0CFF1C001F111F0A94D2F7ED82FE82EF
:101740000F831887CE1ADF0ADC82CB821A82CE0181
:1017500001960E94FE0B2896EAE00C94EF0DEF92A2
:10176000FF920F931F937B018C0180E0E81680E0CD
:10177000F80681E0080780E0180788F48FEFE81684
:10178000F1040105110531F028F088E090E0A0E0B7
:10179000B0E017C080E090E0A0E0B0E012C080E0D0
:1017A000E81680E0F80680E0080781E0180728F0D6
:1017B00088E190E0A0E0B0E004C080E190E0A0E02B
:1017C000B0E020E230E040E050E0281B390B4A0B4B
:1017D0005B0B04C016950795F794E7948A95D2F7AA
:1017E000F701E65EFE4F8081281B3109410951094E
:1017F000C9011F910F91FF90EF900895DF92EF9232
:10180000FF920F931F93FC01E480F58006811781FE
:10181000D1808081823048F480E090E0A0E1B0E0A7
:10182000E82AF92A0A2B1B2BA5C0843009F49FC093
:10183000823021F4EE24FF24870105C0E114F10475
:101840000105110519F4E0E0F0E096C062817381B2
:101850009FEF623879070CF05BC022E83FEF261B50
:10186000370B2A3131052CF020E030E040E050E029
:101870002AC0B801A701022E04C076956795579536
:1018800047950A94D2F781E090E0A0E0B0E004C070
:10189000880F991FAA1FBB1F2A95D2F70197A1098C
:1018A000B1098E219F21A023B1230097A105B10585
:1018B00021F081E090E0A0E0B0E09A01AB01282B9C
:1018C000392B4A2B5B2BDA01C9018F779070A070FE
:1018D000B07080349105A105B10539F427FF09C026
:1018E000205C3F4F4F4F5F4F04C0215C3F4F4F4F35
:1018F0005F4FE0E0F0E02030A0E03A07A0E04A07C8
:10190000A0E45A0710F0E1E0F0E079018A0127C075
:101910006038710564F5FB01E158FF4FD801C7013C
:101920008F779070A070B07080349105A105B105DB
:1019300039F4E7FE0DC080E490E0A0E0B0E004C020
:101940008FE390E0A0E0B0E0E80EF91E0A1F1B1F35
:1019500017FF05C016950795F794E794319687E031
:1019600016950795F794E7948A95D1F705C0EE246C
:10197000FF248701EFEFF0E06E2F679566276795EC
:10198000902F9F77D794DD24D7948E2F8695492F5B
:10199000462B582F5D29B701CA011F910F91FF9067
:1019A000EF90DF900895FC01DB014081518122819D
:1019B000622F6F7770E0221F2227221F9381892FC9
:1019C000880F822B282F30E0991F9927991F119695
:1019D0009C93119721153105A9F541155105610514
:1019E000710511F482E037C082E89FEF13969C9353
:1019F0008E9312979A01AB0167E0220F331F441FA9
:101A0000551F6A95D1F783E08C930DC0220F331FC9
:101A1000441F551F12968D919C9113970197139611
:101A20009C938E931297203080E0380780E048071F
:101A300080E4580758F314962D933D934D935C938F
:101A4000179708952F3F310579F441155105610528
:101A5000710519F484E08C93089564FF03C081E05C
:101A60008C9312C01C9210C02F57304013963C9399
:101A70002E93129783E08C9387E0440F551F661FC7
:101A8000771F8A95D1F7706414964D935D936D938B
:101A90007C93179708951F93DC01FB019C91923072
:101AA00008F447C08081823008F443C0943051F478
:101AB00011961C91843099F58181682F70E0611B2B
:101AC00071093FC0843021F0923031F48230B9F195
:101AD0008181882389F12DC011961C911197823044
:101AE000F1F081811817D9F412962D913C9113973A
:101AF000828193818217930794F028173907BCF0ED
:101B000014968D919D910D90BC91A02D24813581CD
:101B100046815781281739074A075B0718F41123B4
:101B200041F00AC082179307A407B50740F41123B8
:101B300019F061E070E005C06FEF7FEF02C060E078
:101B400070E0CB011F91089597FB092E07260AD05C
:101B500077FD04D00CD006D000201AF47095619562
:101B60007F4F0895F6F7909581959F4F0895AA1B92
:101B7000BB1B51E107C0AA1FBB1FA617B70710F078
:101B8000A61BB70B881F991F5A95A9F780959095AA
:101B9000BC01CD0108952F923F924F925F926F92B8
:101BA0007F928F929F92AF92BF92CF92DF92EF92ED
:101BB000FF920F931F93CF93DF93CDB7DEB7CA1B6E
:101BC000DB0B0FB6F894DEBF0FBECDBF09942A8899
:101BD000398848885F846E847D848C849B84AA8441
:101BE000B984C884DF80EE80FD800C811B81AA81CE
:101BF000B981CE0FD11D0FB6F894DEBF0FBECDBF99
:101C0000ED010895DC01CB01FC01F999FECF06C07E
:101C1000F2BDE1BDF89A319600B40D9241505040AA
:101C2000B8F70895DC01CB0103C02D910E941D0E71
:101C300041505040D0F70895262FF999FECF1FBA92
:101C400092BD81BD20BD0FB6F894FA9AF99A0FBEE5
:081C500001960895F894FFCFFE
:101C5800CA261306D76411EB9424B499BADF00A1FD
:101C680001E8000000000000000000010202030378
:101C78000303040404040404040405050505050518
:101C880005050505050505050505060606060606F6
:101C980006060606060606060606060606060606DC
:101CA80006060606060606060606070707070707C6
:101CB80007070707070707070707070707070707AC
:101CC800070707070707070707070707070707079C
:101CD800070707070707070707070707070707078C
:101CE8000707070707070707070708080808080876
:101CF800080808080808080808080808080808085C
:101D0800080808080808080808080808080808084B
:101D1800080808080808080808080808080808083B
:101D2800080808080808080808080808080808082B
:101D3800080808080808080808080808080808081B
:101D4800080808080808080808080808080808080B
:101D580008080808080808080808080808080808FB
:0A1D68000808080808080808080821
:00000001FF
